{
  "contractName": "Offer",
  "abi": [
    {
      "inputs": [
        {
          "internalType": "address payable",
          "name": "newSeller",
          "type": "address"
        },
        {
          "internalType": "bytes",
          "name": "sellerPublicKey",
          "type": "bytes"
        },
        {
          "internalType": "uint256",
          "name": "newPrice",
          "type": "uint256"
        },
        {
          "internalType": "string",
          "name": "newTitle",
          "type": "string"
        },
        {
          "internalType": "string",
          "name": "newCategory",
          "type": "string"
        },
        {
          "internalType": "bytes3",
          "name": "newShipsFrom",
          "type": "bytes3"
        }
      ],
      "payable": true,
      "stateMutability": "payable",
      "type": "constructor"
    },
    {
      "anonymous": false,
      "inputs": [
        {
          "indexed": true,
          "internalType": "string",
          "name": "newCID",
          "type": "string"
        },
        {
          "indexed": false,
          "internalType": "string",
          "name": "oldCID",
          "type": "string"
        }
      ],
      "name": "AttachedFilesChanged",
      "type": "event"
    },
    {
      "anonymous": false,
      "inputs": [
        {
          "indexed": true,
          "internalType": "address",
          "name": "buyer",
          "type": "address"
        }
      ],
      "name": "Bought",
      "type": "event"
    },
    {
      "anonymous": false,
      "inputs": [
        {
          "indexed": false,
          "internalType": "address",
          "name": "oldBuyer",
          "type": "address"
        }
      ],
      "name": "BuyerRejected",
      "type": "event"
    },
    {
      "anonymous": false,
      "inputs": [],
      "name": "Cancelled",
      "type": "event"
    },
    {
      "anonymous": false,
      "inputs": [
        {
          "indexed": false,
          "internalType": "string",
          "name": "newCategory",
          "type": "string"
        }
      ],
      "name": "CategoryChanged",
      "type": "event"
    },
    {
      "anonymous": false,
      "inputs": [],
      "name": "Completed",
      "type": "event"
    },
    {
      "anonymous": false,
      "inputs": [
        {
          "indexed": true,
          "internalType": "address",
          "name": "seller",
          "type": "address"
        },
        {
          "indexed": false,
          "internalType": "string",
          "name": "title",
          "type": "string"
        },
        {
          "indexed": false,
          "internalType": "uint256",
          "name": "price",
          "type": "uint256"
        },
        {
          "indexed": false,
          "internalType": "string",
          "name": "category",
          "type": "string"
        },
        {
          "indexed": false,
          "internalType": "bytes3",
          "name": "shipsFrom",
          "type": "bytes3"
        }
      ],
      "name": "Created",
      "type": "event"
    },
    {
      "anonymous": false,
      "inputs": [
        {
          "indexed": false,
          "internalType": "uint256",
          "name": "newPrice",
          "type": "uint256"
        }
      ],
      "name": "PriceChanged",
      "type": "event"
    },
    {
      "anonymous": false,
      "inputs": [
        {
          "indexed": false,
          "internalType": "bytes3",
          "name": "newShipsFrom",
          "type": "bytes3"
        }
      ],
      "name": "ShipsFromChanged",
      "type": "event"
    },
    {
      "anonymous": false,
      "inputs": [
        {
          "indexed": false,
          "internalType": "string",
          "name": "newTitle",
          "type": "string"
        }
      ],
      "name": "TitleChanged",
      "type": "event"
    },
    {
      "constant": true,
      "inputs": [],
      "name": "BUYER_DEPOSIT_MULTIPLIER",
      "outputs": [
        {
          "internalType": "uint256",
          "name": "",
          "type": "uint256"
        }
      ],
      "payable": false,
      "stateMutability": "view",
      "type": "function"
    },
    {
      "constant": true,
      "inputs": [],
      "name": "MIN_PRICE",
      "outputs": [
        {
          "internalType": "uint256",
          "name": "",
          "type": "uint256"
        }
      ],
      "payable": false,
      "stateMutability": "view",
      "type": "function"
    },
    {
      "constant": true,
      "inputs": [],
      "name": "SELLER_DEPOSIT_MULTIPLIER",
      "outputs": [
        {
          "internalType": "uint256",
          "name": "",
          "type": "uint256"
        }
      ],
      "payable": false,
      "stateMutability": "view",
      "type": "function"
    },
    {
      "constant": true,
      "inputs": [],
      "name": "attachedFiles",
      "outputs": [
        {
          "internalType": "string",
          "name": "",
          "type": "string"
        }
      ],
      "payable": false,
      "stateMutability": "view",
      "type": "function"
    },
    {
      "constant": true,
      "inputs": [],
      "name": "buyer",
      "outputs": [
        {
          "internalType": "address payable",
          "name": "",
          "type": "address"
        }
      ],
      "payable": false,
      "stateMutability": "view",
      "type": "function"
    },
    {
      "constant": true,
      "inputs": [],
      "name": "category",
      "outputs": [
        {
          "internalType": "string",
          "name": "",
          "type": "string"
        }
      ],
      "payable": false,
      "stateMutability": "view",
      "type": "function"
    },
    {
      "constant": true,
      "inputs": [],
      "name": "confirmationDate",
      "outputs": [
        {
          "internalType": "uint64",
          "name": "",
          "type": "uint64"
        }
      ],
      "payable": false,
      "stateMutability": "view",
      "type": "function"
    },
    {
      "constant": true,
      "inputs": [],
      "name": "creationDate",
      "outputs": [
        {
          "internalType": "uint64",
          "name": "",
          "type": "uint64"
        }
      ],
      "payable": false,
      "stateMutability": "view",
      "type": "function"
    },
    {
      "constant": true,
      "inputs": [],
      "name": "currentStatus",
      "outputs": [
        {
          "internalType": "enum Offer.State",
          "name": "",
          "type": "uint8"
        }
      ],
      "payable": false,
      "stateMutability": "view",
      "type": "function"
    },
    {
      "constant": true,
      "inputs": [
        {
          "internalType": "address",
          "name": "",
          "type": "address"
        }
      ],
      "name": "pendingWithdrawals",
      "outputs": [
        {
          "internalType": "uint256",
          "name": "",
          "type": "uint256"
        }
      ],
      "payable": false,
      "stateMutability": "view",
      "type": "function"
    },
    {
      "constant": true,
      "inputs": [],
      "name": "price",
      "outputs": [
        {
          "internalType": "uint256",
          "name": "",
          "type": "uint256"
        }
      ],
      "payable": false,
      "stateMutability": "view",
      "type": "function"
    },
    {
      "constant": true,
      "inputs": [],
      "name": "purchaseDate",
      "outputs": [
        {
          "internalType": "uint64",
          "name": "",
          "type": "uint64"
        }
      ],
      "payable": false,
      "stateMutability": "view",
      "type": "function"
    },
    {
      "constant": true,
      "inputs": [],
      "name": "seller",
      "outputs": [
        {
          "internalType": "address payable",
          "name": "",
          "type": "address"
        }
      ],
      "payable": false,
      "stateMutability": "view",
      "type": "function"
    },
    {
      "constant": true,
      "inputs": [],
      "name": "sellerKey",
      "outputs": [
        {
          "internalType": "bytes",
          "name": "",
          "type": "bytes"
        }
      ],
      "payable": false,
      "stateMutability": "view",
      "type": "function"
    },
    {
      "constant": true,
      "inputs": [],
      "name": "shipsFrom",
      "outputs": [
        {
          "internalType": "bytes3",
          "name": "",
          "type": "bytes3"
        }
      ],
      "payable": false,
      "stateMutability": "view",
      "type": "function"
    },
    {
      "constant": true,
      "inputs": [],
      "name": "title",
      "outputs": [
        {
          "internalType": "string",
          "name": "",
          "type": "string"
        }
      ],
      "payable": false,
      "stateMutability": "view",
      "type": "function"
    },
    {
      "constant": false,
      "inputs": [],
      "name": "withdraw",
      "outputs": [],
      "payable": false,
      "stateMutability": "nonpayable",
      "type": "function"
    },
    {
      "constant": true,
      "inputs": [],
      "name": "getContactInfo",
      "outputs": [
        {
          "internalType": "bytes",
          "name": "",
          "type": "bytes"
        }
      ],
      "payable": false,
      "stateMutability": "view",
      "type": "function"
    },
    {
      "constant": false,
      "inputs": [
        {
          "internalType": "string",
          "name": "newCID",
          "type": "string"
        }
      ],
      "name": "setAttachedFiles",
      "outputs": [],
      "payable": false,
      "stateMutability": "nonpayable",
      "type": "function"
    },
    {
      "constant": false,
      "inputs": [
        {
          "internalType": "uint256",
          "name": "newPrice",
          "type": "uint256"
        }
      ],
      "name": "setPrice",
      "outputs": [],
      "payable": true,
      "stateMutability": "payable",
      "type": "function"
    },
    {
      "constant": false,
      "inputs": [
        {
          "internalType": "string",
          "name": "newTitle",
          "type": "string"
        }
      ],
      "name": "setTitle",
      "outputs": [],
      "payable": false,
      "stateMutability": "nonpayable",
      "type": "function"
    },
    {
      "constant": false,
      "inputs": [
        {
          "internalType": "string",
          "name": "newCategory",
          "type": "string"
        }
      ],
      "name": "setCategory",
      "outputs": [],
      "payable": false,
      "stateMutability": "nonpayable",
      "type": "function"
    },
    {
      "constant": false,
      "inputs": [
        {
          "internalType": "bytes3",
          "name": "newShipsFrom",
          "type": "bytes3"
        }
      ],
      "name": "setShipsFrom",
      "outputs": [],
      "payable": false,
      "stateMutability": "nonpayable",
      "type": "function"
    },
    {
      "constant": false,
      "inputs": [
        {
          "internalType": "bytes",
          "name": "newContactInfo",
          "type": "bytes"
        }
      ],
      "name": "buy",
      "outputs": [],
      "payable": true,
      "stateMutability": "payable",
      "type": "function"
    },
    {
      "constant": false,
      "inputs": [],
      "name": "confirm",
      "outputs": [],
      "payable": false,
      "stateMutability": "nonpayable",
      "type": "function"
    },
    {
      "constant": false,
      "inputs": [],
      "name": "rejectBuyer",
      "outputs": [],
      "payable": false,
      "stateMutability": "nonpayable",
      "type": "function"
    },
    {
      "constant": false,
      "inputs": [],
      "name": "cancel",
      "outputs": [],
      "payable": false,
      "stateMutability": "nonpayable",
      "type": "function"
    },
    {
      "constant": true,
      "inputs": [],
      "name": "buyerDeposit",
      "outputs": [
        {
          "internalType": "uint256",
          "name": "",
          "type": "uint256"
        }
      ],
      "payable": false,
      "stateMutability": "view",
      "type": "function"
    },
    {
      "constant": true,
      "inputs": [],
      "name": "sellerDeposit",
      "outputs": [
        {
          "internalType": "uint256",
          "name": "",
          "type": "uint256"
        }
      ],
      "payable": false,
      "stateMutability": "view",
      "type": "function"
    },
    {
      "constant": true,
      "inputs": [],
      "name": "buyerDepositWithPayment",
      "outputs": [
        {
          "internalType": "uint256",
          "name": "",
          "type": "uint256"
        }
      ],
      "payable": false,
      "stateMutability": "view",
      "type": "function"
    },
    {
      "constant": true,
      "inputs": [],
      "name": "sellerDepositWithPayment",
      "outputs": [
        {
          "internalType": "uint256",
          "name": "",
          "type": "uint256"
        }
      ],
      "payable": false,
      "stateMutability": "view",
      "type": "function"
    }
  ],
  "bytecode": "0x6080604052604051620035d6380380620035d6833981810160405260c08110156200002957600080fd5b8101908080519060200190929190805160405193929190846401000000008211156200005457600080fd5b838201915060208201858111156200006b57600080fd5b82518660018202830111640100000000821117156200008957600080fd5b8083526020830192505050908051906020019080838360005b83811015620000bf578082015181840152602081019050620000a2565b50505050905090810190601f168015620000ed5780820380516001836020036101000a031916815260200191505b5060405260200180519060200190929190805160405193929190846401000000008211156200011b57600080fd5b838201915060208201858111156200013257600080fd5b82518660018202830111640100000000821117156200015057600080fd5b8083526020830192505050908051906020019080838360005b838110156200018657808201518184015260208101905062000169565b50505050905090810190601f168015620001b45780820380516001836020036101000a031916815260200191505b5060405260200180516040519392919084640100000000821115620001d857600080fd5b83820191506020820185811115620001ef57600080fd5b82518660018202830111640100000000821117156200020d57600080fd5b8083526020830192505050908051906020019080838360005b838110156200024357808201518184015260208101905062000226565b50505050905090810190601f168015620002715780820380516001836020036101000a031916815260200191505b506040526020018051906020019092919050505060006001116200029157fe5b60006002116200029d57fe5b600084101562000315576040517f08c379a000000000000000000000000000000000000000000000000000000000815260040180806020018281038252600f8152602001807f507269636520746f6f20736d616c6c000000000000000000000000000000000081525060200191505060405180910390fd5b60008460020290508481101562000394576040517f08c379a000000000000000000000000000000000000000000000000000000000815260040180806020018281038252600d8152602001807f507269636520746f6f206269670000000000000000000000000000000000000081525060200191505060405180910390fd5b8034146200040a576040517f08c379a000000000000000000000000000000000000000000000000000000000815260040180806020018281038252600f8152602001807f496e76616c6964206465706f736974000000000000000000000000000000000081525060200191505060405180910390fd5b600084511162000482576040517f08c379a00000000000000000000000000000000000000000000000000000000081526004018080602001828103825260138152602001807f41207469746c652069732072657175697265640000000000000000000000000081525060200191505060405180910390fd5b86600260036101000a81548173ffffffffffffffffffffffffffffffffffffffff021916908373ffffffffffffffffffffffffffffffffffffffff1602179055508560019080519060200190620004db92919062000724565b50846004819055508360059080519060200190620004fb929190620007ab565b50826006908051906020019062000514929190620007ab565b5081600260006101000a81548162ffffff021916908360e81c021790555042600060016101000a81548167ffffffffffffffff021916908367ffffffffffffffff16021790555060008060006101000a81548160ff021916908360038111156200057a57fe5b0217905550600260039054906101000a900473ffffffffffffffffffffffffffffffffffffffff1673ffffffffffffffffffffffffffffffffffffffff167fc67689dd905cea5892bde5ca8a76743d9cb6aab472e7812c11e5e373b8c6a17385878686604051808060200185815260200180602001847cffffffffffffffffffffffffffffffffffffffffffffffffffffffffff19167cffffffffffffffffffffffffffffffffffffffffffffffffffffffffff19168152602001838103835287818151815260200191508051906020019080838360005b838110156200066f57808201518184015260208101905062000652565b50505050905090810190601f1680156200069d5780820380516001836020036101000a031916815260200191505b50838103825285818151815260200191508051906020019080838360005b83811015620006d8578082015181840152602081019050620006bb565b50505050905090810190601f168015620007065780820380516001836020036101000a031916815260200191505b50965050505050505060405180910390a2505050505050506200085a565b828054600181600116156101000203166002900490600052602060002090601f016020900481019282601f106200076757805160ff191683800117855562000798565b8280016001018555821562000798579182015b82811115620007975782518255916020019190600101906200077a565b5b509050620007a7919062000832565b5090565b828054600181600116156101000203166002900490600052602060002090601f016020900481019282601f10620007ee57805160ff19168380011785556200081f565b828001600101855582156200081f579182015b828111156200081e57825182559160200191906001019062000801565b5b5090506200082e919062000832565b5090565b6200085791905b808211156200085357600081600090555060010162000839565b5090565b90565b612d6c806200086a6000396000f3fe6080604052600436106101d85760003560e01c80637150d8ae11610102578063c1a28b3811610095578063ef8a923511610064578063ef8a923514610b29578063f3f4370314610b62578063fa2e4ad614610bc7578063ff6cb99814610c06576101d8565b8063c1a28b381461098f578063d35d1bda14610a57578063ea8a1af014610a82578063ef430aa614610a99576101d8565b8063a035b1fe116100d1578063a035b1fe146108e3578063a05795871461090e578063a111812c14610939578063ad9f20a614610964576101d8565b80637150d8ae1461070657806372910be01461075d578063787453ee1461082557806391b7f5ed146108b5576101d8565b80634559b8921161017a5780634c1786ea116101495780634c1786ea146105f55780635af1773e146106205780636b6d8703146106b05780637022b58e146106ef576101d8565b80634559b892146103875780634622d095146104425780634a79d50c1461049d5780634ae4141f1461052d576101d8565b80631239a326116101b65780631239a3261461028a578063260a6ced1461031a5780632a420850146103455780633ccfd60b14610370576101d8565b806305b34410146101dd57806308551a531461021c57806308ccce8214610273575b600080fd5b3480156101e957600080fd5b506101f2610c71565b604051808267ffffffffffffffff1667ffffffffffffffff16815260200191505060405180910390f35b34801561022857600080fd5b50610231610c8b565b604051808273ffffffffffffffffffffffffffffffffffffffff1673ffffffffffffffffffffffffffffffffffffffff16815260200191505060405180910390f35b34801561027f57600080fd5b50610288610cb1565b005b34801561029657600080fd5b5061029f610f20565b6040518080602001828103825283818151815260200191508051906020019080838360005b838110156102df5780820151818401526020810190506102c4565b50505050905090810190601f16801561030c5780820380516001836020036101000a031916815260200191505b509250505060405180910390f35b34801561032657600080fd5b5061032f610fbe565b6040518082815260200191505060405180910390f35b34801561035157600080fd5b5061035a610fcd565b6040518082815260200191505060405180910390f35b34801561037c57600080fd5b50610385610fd2565b005b6104406004803603602081101561039d57600080fd5b81019080803590602001906401000000008111156103ba57600080fd5b8201836020820111156103cc57600080fd5b803590602001918460018302840111640100000000831117156103ee57600080fd5b91908080601f016020809104026020016040519081016040528093929190818152602001838380828437600081840152601f19601f8201169050808301925050505050505091929192905050506110fe565b005b34801561044e57600080fd5b5061049b6004803603602081101561046557600080fd5b8101908080357cffffffffffffffffffffffffffffffffffffffffffffffffffffffffff191690602001909291905050506113e4565b005b3480156104a957600080fd5b506104b261159e565b6040518080602001828103825283818151815260200191508051906020019080838360005b838110156104f25780820151818401526020810190506104d7565b50505050905090810190601f16801561051f5780820380516001836020036101000a031916815260200191505b509250505060405180910390f35b34801561053957600080fd5b506105f36004803603602081101561055057600080fd5b810190808035906020019064010000000081111561056d57600080fd5b82018360208201111561057f57600080fd5b803590602001918460018302840111640100000000831117156105a157600080fd5b91908080601f016020809104026020016040519081016040528093929190818152602001838380828437600081840152601f19601f82011690508083019250505050505050919291929050505061163c565b005b34801561060157600080fd5b5061060a611899565b6040518082815260200191505060405180910390f35b34801561062c57600080fd5b506106356118a6565b6040518080602001828103825283818151815260200191508051906020019080838360005b8381101561067557808201518184015260208101905061065a565b50505050905090810190601f1680156106a25780820380516001836020036101000a031916815260200191505b509250505060405180910390f35b3480156106bc57600080fd5b506106c5611af2565b604051808267ffffffffffffffff1667ffffffffffffffff16815260200191505060405180910390f35b3480156106fb57600080fd5b50610704611b0c565b005b34801561071257600080fd5b5061071b611d49565b604051808273ffffffffffffffffffffffffffffffffffffffff1673ffffffffffffffffffffffffffffffffffffffff16815260200191505060405180910390f35b34801561076957600080fd5b506108236004803603602081101561078057600080fd5b810190808035906020019064010000000081111561079d57600080fd5b8201836020820111156107af57600080fd5b803590602001918460018302840111640100000000831117156107d157600080fd5b91908080601f016020809104026020016040519081016040528093929190818152602001838380828437600081840152601f19601f820116905080830192505050505050509192919290505050611d6f565b005b34801561083157600080fd5b5061083a611fdc565b6040518080602001828103825283818151815260200191508051906020019080838360005b8381101561087a57808201518184015260208101905061085f565b50505050905090810190601f1680156108a75780820380516001836020036101000a031916815260200191505b509250505060405180910390f35b6108e1600480360360208110156108cb57600080fd5b810190808035906020019092919050505061207a565b005b3480156108ef57600080fd5b506108f8612454565b6040518082815260200191505060405180910390f35b34801561091a57600080fd5b5061092361245a565b6040518082815260200191505060405180910390f35b34801561094557600080fd5b5061094e612467565b6040518082815260200191505060405180910390f35b34801561097057600080fd5b5061097961246c565b6040518082815260200191505060405180910390f35b34801561099b57600080fd5b50610a55600480360360208110156109b257600080fd5b81019080803590602001906401000000008111156109cf57600080fd5b8201836020820111156109e157600080fd5b80359060200191846001830284011164010000000083111715610a0357600080fd5b91908080601f016020809104026020016040519081016040528093929190818152602001838380828437600081840152601f19601f820116905080830192505050505050509192919290505050612471565b005b348015610a6357600080fd5b50610a6c612667565b6040518082815260200191505060405180910390f35b348015610a8e57600080fd5b50610a97612677565b005b348015610aa557600080fd5b50610aae6128bd565b6040518080602001828103825283818151815260200191508051906020019080838360005b83811015610aee578082015181840152602081019050610ad3565b50505050905090810190601f168015610b1b5780820380516001836020036101000a031916815260200191505b509250505060405180910390f35b348015610b3557600080fd5b50610b3e61295b565b60405180826003811115610b4e57fe5b60ff16815260200191505060405180910390f35b348015610b6e57600080fd5b50610bb160048036036020811015610b8557600080fd5b81019080803573ffffffffffffffffffffffffffffffffffffffff16906020019092919050505061296d565b6040518082815260200191505060405180910390f35b348015610bd357600080fd5b50610bdc612985565b604051808267ffffffffffffffff1667ffffffffffffffff16815260200191505060405180910390f35b348015610c1257600080fd5b50610c1b61299f565b60405180827cffffffffffffffffffffffffffffffffffffffffffffffffffffffffff19167cffffffffffffffffffffffffffffffffffffffffffffffffffffffffff1916815260200191505060405180910390f35b600060019054906101000a900467ffffffffffffffff1681565b600260039054906101000a900473ffffffffffffffffffffffffffffffffffffffff1681565b60016003811115610cbe57fe5b6000809054906101000a900460ff166003811115610cd857fe5b14610d2e576040517f08c379a0000000000000000000000000000000000000000000000000000000008152600401808060200182810382526024815260200180612ce66024913960400191505060405180910390fd5b600260039054906101000a900473ffffffffffffffffffffffffffffffffffffffff1673ffffffffffffffffffffffffffffffffffffffff163373ffffffffffffffffffffffffffffffffffffffff1614610df1576040517f08c379a000000000000000000000000000000000000000000000000000000000815260040180806020018281038252601c8152602001807f4f6e6c792073656c6c65722063616e2072656a6563742062757965720000000081525060200191505060405180910390fd5b610e24600360009054906101000a900473ffffffffffffffffffffffffffffffffffffffff16610e1f610fbe565b6129b2565b6000600360009054906101000a900473ffffffffffffffffffffffffffffffffffffffff169050600360006101000a81549073ffffffffffffffffffffffffffffffffffffffff021916905560086000610e7e9190612a03565b600060096101000a81549067ffffffffffffffff021916905560008060006101000a81548160ff02191690836003811115610eb557fe5b02179055507f9435d0e1c43e1c363005f6baf55f7497a98f8cb364d66aa524cfb716d7240a5981604051808273ffffffffffffffffffffffffffffffffffffffff1673ffffffffffffffffffffffffffffffffffffffff16815260200191505060405180910390a150565b60018054600181600116156101000203166002900480601f016020809104026020016040519081016040528092919081815260200182805460018160011615610100020316600290048015610fb65780601f10610f8b57610100808354040283529160200191610fb6565b820191906000526020600020905b815481529060010190602001808311610f9957829003601f168201915b505050505081565b60006001800160045402905090565b600281565b6000600960003373ffffffffffffffffffffffffffffffffffffffff1673ffffffffffffffffffffffffffffffffffffffff1681526020019081526020016000205490506000811161106f576040517f08c379a0000000000000000000000000000000000000000000000000000000008152600401808060200182810382526027815260200180612c236027913960400191505060405180910390fd5b6000600960003373ffffffffffffffffffffffffffffffffffffffff1673ffffffffffffffffffffffffffffffffffffffff168152602001908152602001600020819055503373ffffffffffffffffffffffffffffffffffffffff166108fc829081150290604051600060405180830381858888f193505050501580156110fa573d6000803e3d6000fd5b5050565b6000600381111561110b57fe5b6000809054906101000a900460ff16600381111561112557fe5b14611198576040517f08c379a000000000000000000000000000000000000000000000000000000000815260040180806020018281038252601b8152602001807f43616e27742062757920696e2063757272656e7420737461747573000000000081525060200191505060405180910390fd5b600260039054906101000a900473ffffffffffffffffffffffffffffffffffffffff1673ffffffffffffffffffffffffffffffffffffffff163373ffffffffffffffffffffffffffffffffffffffff16141561125c576040517f08c379a00000000000000000000000000000000000000000000000000000000081526004018080602001828103825260158152602001807f53656c6c65722063616e27742073656c662d627579000000000000000000000081525060200191505060405180910390fd5b611264610fbe565b34146112d8576040517f08c379a000000000000000000000000000000000000000000000000000000000815260040180806020018281038252600f8152602001807f496e76616c6964206465706f736974000000000000000000000000000000000081525060200191505060405180910390fd5b33600360006101000a81548173ffffffffffffffffffffffffffffffffffffffff021916908373ffffffffffffffffffffffffffffffffffffffff160217905550806008908051906020019061132f929190612a4b565b5042600060096101000a81548167ffffffffffffffff021916908367ffffffffffffffff16021790555060016000806101000a81548160ff0219169083600381111561137757fe5b0217905550600360009054906101000a900473ffffffffffffffffffffffffffffffffffffffff1673ffffffffffffffffffffffffffffffffffffffff167f25a027d4fd2742364c6c140aa4f98ffb075d141de8f24afb5583afb60aaba7dd60405160405180910390a250565b600260039054906101000a900473ffffffffffffffffffffffffffffffffffffffff1673ffffffffffffffffffffffffffffffffffffffff163373ffffffffffffffffffffffffffffffffffffffff161461148a576040517f08c379a0000000000000000000000000000000000000000000000000000000008152600401808060200182810382526027815260200180612bfc6027913960400191505060405180910390fd5b6000600381111561149757fe5b6000809054906101000a900460ff1660038111156114b157fe5b14611507576040517f08c379a0000000000000000000000000000000000000000000000000000000008152600401808060200182810382526036815260200180612c6f6036913960400191505060405180910390fd5b80600260006101000a81548162ffffff021916908360e81c02179055507f4667230a3c848bca6bd2beb25dac62788ddc8a9b27782f32ba0642a41afa3c698160405180827cffffffffffffffffffffffffffffffffffffffffffffffffffffffffff19167cffffffffffffffffffffffffffffffffffffffffffffffffffffffffff1916815260200191505060405180910390a150565b60058054600181600116156101000203166002900480601f0160208091040260200160405190810160405280929190818152602001828054600181600116156101000203166002900480156116345780601f1061160957610100808354040283529160200191611634565b820191906000526020600020905b81548152906001019060200180831161161757829003601f168201915b505050505081565b600260039054906101000a900473ffffffffffffffffffffffffffffffffffffffff1673ffffffffffffffffffffffffffffffffffffffff163373ffffffffffffffffffffffffffffffffffffffff16146116e2576040517f08c379a0000000000000000000000000000000000000000000000000000000008152600401808060200182810382526025815260200180612c4a6025913960400191505060405180910390fd5b606060078054600181600116156101000203166002900480601f01602080910402602001604051908101604052809291908181526020018280546001816001161561010002031660029004801561177a5780601f1061174f5761010080835404028352916020019161177a565b820191906000526020600020905b81548152906001019060200180831161175d57829003601f168201915b505050505090508160079080519060200190611797929190612acb565b50816040518082805190602001908083835b602083106117cc57805182526020820191506020810190506020830392506117a9565b6001836020036101000a03801982511681845116808217855250505050505090500191505060405180910390207f5883cf54d8a34ec8ec9f4004f6893f080693dd37ca9f5e36b3f8a419f565f797826040518080602001828103825283818151815260200191508051906020019080838360005b8381101561185b578082015181840152602081019050611840565b50505050905090810190601f1680156118885780820380516001836020036101000a031916815260200191505b509250505060405180910390a25050565b6000600260045402905090565b6060600160038111156118b557fe5b6000809054906101000a900460ff1660038111156118cf57fe5b14806118ff5750600260038111156118e357fe5b6000809054906101000a900460ff1660038111156118fd57fe5b145b611954576040517f08c379a000000000000000000000000000000000000000000000000000000000815260040180806020018281038252603b815260200180612b95603b913960400191505060405180910390fd5b600260039054906101000a900473ffffffffffffffffffffffffffffffffffffffff1673ffffffffffffffffffffffffffffffffffffffff163373ffffffffffffffffffffffffffffffffffffffff1614806119fd5750600360009054906101000a900473ffffffffffffffffffffffffffffffffffffffff1673ffffffffffffffffffffffffffffffffffffffff163373ffffffffffffffffffffffffffffffffffffffff16145b611a52576040517f08c379a0000000000000000000000000000000000000000000000000000000008152600401808060200182810382526041815260200180612ca56041913960600191505060405180910390fd5b60088054600181600116156101000203166002900480601f016020809104026020016040519081016040528092919081815260200182805460018160011615610100020316600290048015611ae85780601f10611abd57610100808354040283529160200191611ae8565b820191906000526020600020905b815481529060010190602001808311611acb57829003601f168201915b5050505050905090565b600060119054906101000a900467ffffffffffffffff1681565b60016003811115611b1957fe5b6000809054906101000a900460ff166003811115611b3357fe5b14611ba6576040517f08c379a000000000000000000000000000000000000000000000000000000000815260040180806020018281038252601f8152602001807f43616e277420636f6e6669726d20696e2063757272656e74207374617475730081525060200191505060405180910390fd5b600360009054906101000a900473ffffffffffffffffffffffffffffffffffffffff1673ffffffffffffffffffffffffffffffffffffffff163373ffffffffffffffffffffffffffffffffffffffff1614611c69576040517f08c379a00000000000000000000000000000000000000000000000000000000081526004018080602001828103825260168152602001807f4f6e6c792062757965722063616e20636f6e6669726d0000000000000000000081525060200191505060405180910390fd5b611c9c600260039054906101000a900473ffffffffffffffffffffffffffffffffffffffff16611c97612667565b6129b2565b611ccf600360009054906101000a900473ffffffffffffffffffffffffffffffffffffffff16611cca61245a565b6129b2565b42600060116101000a81548167ffffffffffffffff021916908367ffffffffffffffff16021790555060026000806101000a81548160ff02191690836003811115611d1657fe5b02179055507fe06452d00b2b58f14a1fa6d499ea982ff93ea827ae700ea9ba03f4daddc94bc160405160405180910390a1565b600360009054906101000a900473ffffffffffffffffffffffffffffffffffffffff1681565b600260039054906101000a900473ffffffffffffffffffffffffffffffffffffffff1673ffffffffffffffffffffffffffffffffffffffff163373ffffffffffffffffffffffffffffffffffffffff1614611e32576040517f08c379a000000000000000000000000000000000000000000000000000000000815260040180806020018281038252601c8152602001807f4f6e6c792073656c6c65722063616e206d6f64696679207469746c650000000081525060200191505060405180910390fd5b60006003811115611e3f57fe5b6000809054906101000a900460ff166003811115611e5957fe5b14611eaf576040517f08c379a000000000000000000000000000000000000000000000000000000000815260040180806020018281038252602c815260200180612bd0602c913960400191505060405180910390fd5b6000815111611f26576040517f08c379a00000000000000000000000000000000000000000000000000000000081526004018080602001828103825260138152602001807f41207469746c652069732072657175697265640000000000000000000000000081525060200191505060405180910390fd5b8060059080519060200190611f3c929190612acb565b507f8e93f5a6ac6ff40debdd7d5c9e93516e8f556635b1dcb941b7975205484fe9d3816040518080602001828103825283818151815260200191508051906020019080838360005b83811015611f9f578082015181840152602081019050611f84565b50505050905090810190601f168015611fcc5780820380516001836020036101000a031916815260200191505b509250505060405180910390a150565b60078054600181600116156101000203166002900480601f0160208091040260200160405190810160405280929190818152602001828054600181600116156101000203166002900480156120725780601f1061204757610100808354040283529160200191612072565b820191906000526020600020905b81548152906001019060200180831161205557829003601f168201915b505050505081565b6000600381111561208757fe5b6000809054906101000a900460ff1660038111156120a157fe5b146120f7576040517f08c379a0000000000000000000000000000000000000000000000000000000008152600401808060200182810382526024815260200180612b716024913960400191505060405180910390fd5b600260039054906101000a900473ffffffffffffffffffffffffffffffffffffffff1673ffffffffffffffffffffffffffffffffffffffff163373ffffffffffffffffffffffffffffffffffffffff16146121ba576040517f08c379a000000000000000000000000000000000000000000000000000000000815260040180806020018281038252601c8152602001807f4f6e6c792073656c6c65722063616e206368616e67652070726963650000000081525060200191505060405180910390fd5b6000811015612231576040517f08c379a000000000000000000000000000000000000000000000000000000000815260040180806020018281038252600f8152602001807f507269636520746f6f20736d616c6c000000000000000000000000000000000081525060200191505060405180910390fd5b6000816002029050818110156122af576040517f08c379a000000000000000000000000000000000000000000000000000000000815260040180806020018281038252600d8152602001807f507269636520746f6f206269670000000000000000000000000000000000000081525060200191505060405180910390fd5b600060045490506000816002029050808314156122c857fe5b8083111561234c578083033414612347576040517f08c379a000000000000000000000000000000000000000000000000000000000815260040180806020018281038252600f8152602001807f496e76616c6964206465706f736974000000000000000000000000000000000081525060200191505060405180910390fd5b61240f565b808310156123fd57600034146123ca576040517f08c379a000000000000000000000000000000000000000000000000000000000815260040180806020018281038252600f8152602001807f496e76616c6964206465706f736974000000000000000000000000000000000081525060200191505060405180910390fd5b6123f8600260039054906101000a900473ffffffffffffffffffffffffffffffffffffffff168483036129b2565b61240e565b81841461240657fe5b505050612451565b5b836004819055507fa6dc15bdb68da224c66db4b3838d9a2b205138e8cff6774e57d0af91e196d622846040518082815260200191505060405180910390a15050505b50565b60045481565b6000600160045402905090565b600181565b600081565b600260039054906101000a900473ffffffffffffffffffffffffffffffffffffffff1673ffffffffffffffffffffffffffffffffffffffff163373ffffffffffffffffffffffffffffffffffffffff1614612534576040517f08c379a000000000000000000000000000000000000000000000000000000000815260040180806020018281038252601f8152602001807f4f6e6c792073656c6c65722063616e206368616e67652063617465676f72790081525060200191505060405180910390fd5b6000600381111561254157fe5b6000809054906101000a900460ff16600381111561255b57fe5b146125b1576040517f08c379a000000000000000000000000000000000000000000000000000000000815260040180806020018281038252602e815260200180612d0a602e913960400191505060405180910390fd5b80600690805190602001906125c7929190612acb565b507fa1dc01038f1a2b8fd441a5bb078f7cc86dfe3bc79e6c080287738abc31a552e9816040518080602001828103825283818151815260200191508051906020019080838360005b8381101561262a57808201518184015260208101905061260f565b50505050905090810190601f1680156126575780820380516001836020036101000a031916815260200191505b509250505060405180910390a150565b6000600160020160045402905090565b6000600381111561268457fe5b6000809054906101000a900460ff16600381111561269e57fe5b14806126ce5750600160038111156126b257fe5b6000809054906101000a900460ff1660038111156126cc57fe5b145b612740576040517f08c379a000000000000000000000000000000000000000000000000000000000815260040180806020018281038252601e8152602001807f43616e27742063616e63656c20696e2063757272656e7420737461747573000081525060200191505060405180910390fd5b600260039054906101000a900473ffffffffffffffffffffffffffffffffffffffff1673ffffffffffffffffffffffffffffffffffffffff163373ffffffffffffffffffffffffffffffffffffffff1614612803576040517f08c379a00000000000000000000000000000000000000000000000000000000081526004018080602001828103825260168152602001807f4f6e6c792073656c6c65722063616e2063616e63656c0000000000000000000081525060200191505060405180910390fd5b612836600260039054906101000a900473ffffffffffffffffffffffffffffffffffffffff16612831611899565b6129b2565b6001600381111561284357fe5b6000809054906101000a900460ff16600381111561285d57fe5b141561286c5761286b610cb1565b5b60036000806101000a81548160ff0219169083600381111561288a57fe5b02179055507f63b958841f79ab97cb5456da181454b9932c0e15a3b17f1cbd27e2a8bc61043760405160405180910390a1565b60068054600181600116156101000203166002900480601f0160208091040260200160405190810160405280929190818152602001828054600181600116156101000203166002900480156129535780601f1061292857610100808354040283529160200191612953565b820191906000526020600020905b81548152906001019060200180831161293657829003601f168201915b505050505081565b6000809054906101000a900460ff1681565b60096020528060005260406000206000915090505481565b600060099054906101000a900467ffffffffffffffff1681565b600260009054906101000a900460e81b81565b80600960008473ffffffffffffffffffffffffffffffffffffffff1673ffffffffffffffffffffffffffffffffffffffff168152602001908152602001600020600082825401925050819055505050565b50805460018160011615610100020316600290046000825580601f10612a295750612a48565b601f016020900490600052602060002090810190612a479190612b4b565b5b50565b828054600181600116156101000203166002900490600052602060002090601f016020900481019282601f10612a8c57805160ff1916838001178555612aba565b82800160010185558215612aba579182015b82811115612ab9578251825591602001919060010190612a9e565b5b509050612ac79190612b4b565b5090565b828054600181600116156101000203166002900490600052602060002090601f016020900481019282601f10612b0c57805160ff1916838001178555612b3a565b82800160010185558215612b3a579182015b82811115612b39578251825591602001919060010190612b1e565b5b509050612b479190612b4b565b5090565b612b6d91905b80821115612b69576000816000905550600101612b51565b5090565b9056fe43616e2774206368616e676520707269636520696e2063757272656e7420737461747573436f6e7461637420696e666f726d6174696f6e206973206e6f7420617661696c61626c6520666f72207468652063757272656e74207374617475735469746c652063616e206f6e6c79206265206d6f646966696564206265666f726520612070757263686173654f6e6c792073656c6c65722063616e206368616e6765207368697070696e6720636f756e7472794e6f2070656e64696e67207769746864726177616c7320666f72207468697320616464726573734f6e6c792073656e6465722063616e206d6f646966792061747461636865642066696c65735368697070696e6720636f756e7472792063616e206f6e6c79206265206368616e676564206265666f726520612070757263686173654f6e6c79207468652073656e646572206f72207468652062757965722073686f756c6420636865636b2074686520636f6e7461637420696e666f726d6174696f6e43616e27742072656a65637420627579657220696e2063757272656e742073746174757343617465676f72792063616e206f6e6c79206265206368616e676564206265666f72652061207075726368617365a265627a7a7231582027021dce100799fcc5f4654b5a2162423b997391d9e258b1a18d888ade15378664736f6c63430005100032",
  "source": "pragma solidity >= 0.5.0 < 0.7.0;\n\n/**\n @title An offer to exchange goods or services for Ethers.\n @author The Wallablock team\n */\ncontract Offer {\n    // Config:\n    /// @notice Minimum price for any offer.\n    uint256 public constant MIN_PRICE = 0 ether;\n\n    /**\n     @notice How many times the sale price the seller will be required to deposit.\n             This money will be refunded to the seller upon completion or cancellation\n             of the offer.\n     */\n    uint public constant SELLER_DEPOSIT_MULTIPLIER = 2;\n\n    /**\n     @notice How many times the sale price the buyer will be required to deposit.\n             This is in addition of the price itself. The deposit will be\n             refunded to the buyer upon completion. The payment is to be refunded\n             only in certain circumstances detailed on the relevant functions.\n     */\n    uint public constant BUYER_DEPOSIT_MULTIPLIER = 1;\n    // End of config\n\n\n    /**\n     @notice Possible states of the current offer.\n     */\n    enum State {\n        /// @notice The offer has been made and is awaiting a buyer to proceed.\n        WAITING_BUYER,\n        /// @notice The buyer has purchased this offer, and is waiting\n        ///         fulfillment confirmation from the buyer.\n        PENDING_CONFIRMATION,\n        /// @notice The contract has been successfully completed. No further actions are possible,\n        ///         other than money withdrawal.\n        COMPLETED,\n        /// @notice The contract has been cancelled. No further actions are possible,\n        ///         other than money withdrawal.\n        CANCELLED\n    }\n\n\n    /// @notice The current status of the contract.\n    ///         This limits the operations available for this offer.\n    State public currentStatus;\n\n    uint64 public creationDate;\n    uint64 public purchaseDate;\n    uint64 public confirmationDate;\n\n    /// @notice The seller's public key. Needed for contactInfo encryption.\n    bytes public sellerKey;\n\n    /// @notice The code of the country the offer is shipping from, or \"XXX\" if\n    ///         this does not apply. The code is the ISO 3166-1 alpha-3 code\n    ///         (e.g. ESP...).\n    bytes3 public shipsFrom;\n\n    /// @notice The seller of the contract.\n    address payable public seller;\n\n    /// @notice The buyer (if any) of the contract.\n    /// @dev The null address (0x0) if no buyer makes sense in the current status.\n    address payable public buyer;\n\n    /// @notice The advertised price for the offer.\n    /// @dev Must be bigger or equal to the minimum price.\n    uint256 public price;\n\n    /// @notice A brief description of the offer. May not be empty.\n    string public title;\n\n    /// @notice A string identifying the category of the offer. This string should match\n    ///         one of the application-defined known strings.\n    string public category;\n\n\n    /**\n     @notice An optional IPFS CID to a directory with files (usually photos) related\n             to the offer. Relevant pictures should be displayed alongside the offer.\n     @dev If no files are attached, the string will be empty. Users must take into account\n          that the CID may:\n            a) point to an empty directory,\n            b) point to an inexistent file (possibly because it has been deleted), or\n            c) not be a valid CID at all.\n          For (a), it should be treated the same way as the empty string: no files attached;\n          for (b), an error should be shown. If the requesting user is the seller,\n          they might be prompted to optionally upload the files again;\n          for (c), the buyer might be shown an error and requested to correct it,\n          but other viewers should silently ignore it and behave as if no files had been attached.\n     */\n    string public attachedFiles;\n\n    /// @notice The contact information of the buyer, encrypted with the public key\n    ///         of the seller (`sellerKey`).\n    /// @dev To decrypt it, you need the private key of the seller.\n    ///      Beyond that, the format is unspecified.\n    ///      Despite being private, anyone with access to the blockchain can read it,\n    ///      that's why it must be encrypted. The visibility is just to make it less\n    ///      convenient.\n    bytes private contactInfo;\n\n    /// @notice A mapping of the outstanding amounts due to the accounts.\n    /// @dev This is part of the Withdrawal Pattern used to avoid reentrancy attacks.\n    mapping(address => uint256) public pendingWithdrawals;\n\n\n    /// @notice An offer has been created.\n    event Created(\n        address indexed seller,\n        string title,\n        uint256 price,\n        string category,\n        bytes3 shipsFrom\n    );\n\n    /// @notice The title of the offer has been updated\n    event TitleChanged(string newTitle);\n\n    /// @notice The files attached to the offer have been updated.\n    /// @dev Unlike other changes, the old CID is provided\n    ///      in case it is needed to e.g. unpin old CIDs.\n    event AttachedFilesChanged(string indexed newCID, string oldCID);\n\n    /// @notice The advertised price of the offer has been changed.\n    event PriceChanged(uint256 newPrice);\n\n    /// @notice The category of the offer has been changed.\n    event CategoryChanged(string newCategory);\n\n    /// @notice This shipping country of the offer has been changed.\n    event ShipsFromChanged(bytes3 newShipsFrom);\n\n    /// @notice A buyer has purchased this offer.\n    event Bought(address indexed buyer);\n\n    /// @notice The seller has rejected a buyer.\n    event BuyerRejected(address oldBuyer);\n\n    /// @notice The offer has been completed successfully.\n    event Completed();\n\n    /// @notice The offer has been cancelled.\n    event Cancelled();\n\n\n    /**\n     @notice Create the offer with price `newPrice` and title `newTitle`.\n             The relevant deposit must be made at the same time or the creation will fail.\n     @dev The ethers for the deposit must be sent with the call to the constructor.\n          The value of the deposit is the proposed price times the seller multiplier.\n     @param newPrice The price of the offer. Must be bigger than or equal to the minimum\n                     price `MIN_PRICE`.\n                     Too big of a price may cause an overflow, which will result in a failure.\n     @param newTitle The title of the offer. May not be empty.\n     @param newCategory The category of the offer. See: setCategory()\n     @param newShipsFrom The origin shipping country for the offer. See: setShipsFrom()\n     */\n    constructor(\n        address payable newSeller,\n        bytes memory sellerPublicKey,\n        uint256 newPrice,\n        string memory newTitle,\n        string memory newCategory,\n        bytes3 newShipsFrom\n    ) public payable {\n        assert(BUYER_DEPOSIT_MULTIPLIER > 0);\n        assert(SELLER_DEPOSIT_MULTIPLIER > 0);\n        require(newPrice >= MIN_PRICE, \"Price too small\");\n        uint256 deposit = SELLER_DEPOSIT_MULTIPLIER * newPrice;\n        require(deposit >= newPrice, \"Price too big\");\n        require(msg.value == deposit, \"Invalid deposit\");\n        require(bytes(newTitle).length > 0, \"A title is required\");\n        seller = newSeller;\n        sellerKey = sellerPublicKey;\n        price = newPrice;\n        title = newTitle;\n        category = newCategory;\n        shipsFrom = newShipsFrom;\n        creationDate = uint64(now);\n        currentStatus = State.WAITING_BUYER;\n        emit Created(seller, newTitle, newPrice, newCategory, newShipsFrom);\n    }\n\n    /**\n     @notice Call this to settle any outstanding debts has with the calling account.\n     @dev Check first the pending withdrawals to avoid wasting gas. This is part of the\n          Withdrawal Pattern used to avoid reentrancy attacks.\n     */\n    function withdraw() external {\n        uint256 amount = pendingWithdrawals[msg.sender];\n        require(amount > 0, \"No pending withdrawals for this address\");\n        pendingWithdrawals[msg.sender] = 0;\n        msg.sender.transfer(amount);\n    }\n\n    /**\n     @notice Get the (encrypted) buyer's contact information.\n             This function may only be used by the sender or the buyer, and\n             only in those states where the contact information is available\n             (pending confirmation and completed).\n     @dev Don't rely on these checks to protect the contact information,\n          they can be bypassed by anyone with access to the blockchain;\n          that's why the information must be encrypted.\n     @dev While the buyer can't recover the original information, because\n          that requires the seller's private key, they can compare the encrypted\n          contact information.\n     @return Contact information, encrypted with the sellers public key.\n     */\n    function getContactInfo() external view returns (bytes memory) {\n        // Important note: These checks can't be enforced for nodes,\n        // they only prevent contracts from actively querying the variable.\n        // Reading this without passing the checks is always possible for a node\n        // since it is contained within the blockchain.\n        require(\n            currentStatus == State.PENDING_CONFIRMATION || currentStatus == State.COMPLETED,\n            \"Contact information is not available for the current status\"\n        );\n        require(\n            msg.sender == seller || msg.sender == buyer,\n            \"Only the sender or the buyer should check the contact information\"\n        );\n        return contactInfo;\n    }\n\n    /**\n     @notice Change the attached files of the contract to point to the `newCID` directory.\n     @dev The function will not check the validity of the CID in any way;\n          the caller is resposible for the appropriate checks.\n     @param newCID Content Identifier of the directory containing the updated files.\n     */\n    function setAttachedFiles(string memory newCID) public {\n        require(msg.sender == seller, \"Only sender can modify attached files\");\n        string memory oldCID = attachedFiles;\n        attachedFiles = newCID;\n        emit AttachedFilesChanged(newCID, oldCID);\n    }\n\n    /**\n     @notice Changes the price of the offer to `newPrice`. This is only possible while the\n             contract is awaiting a buyer. If the new price is greater than the current price\n             (`price`), the difference in the deposit must be paid when calling this function.\n             If the new price is lower, the difference in the deposit will be made\n             available for withdrawal.\n     @param newPrice New price to set. Must fulfill the usual conditions of the price.\n     */\n    function setPrice(uint256 newPrice) public payable {\n        require(currentStatus == State.WAITING_BUYER, \"Can't change price in current status\");\n        require(msg.sender == seller, \"Only seller can change price\");\n        require(newPrice >= MIN_PRICE, \"Price too small\");\n        uint256 newDeposit = 2 * newPrice;\n        require(newDeposit >= newPrice, \"Price too big\");\n        uint256 oldPrice = price;\n        uint256 oldDeposit = 2 * oldPrice;\n        assert(newDeposit != oldDeposit);\n        if (newDeposit > oldDeposit) {\n            require(msg.value == newDeposit - oldDeposit, \"Invalid deposit\");\n        } else if (newDeposit < oldDeposit) {\n            require(msg.value == 0, \"Invalid deposit\");\n            payTo(seller, oldDeposit - newDeposit);\n        } else {\n            assert(newPrice == oldPrice);\n            return; // Avoid emmiting event\n        }\n        price = newPrice;\n        emit PriceChanged(newPrice);\n    }\n\n    /**\n     @notice Change the title of the offer to `newTitle`.\n             This is only available while the contract is awaiting a buyer.\n     @param newTitle New title to be set. May not be empty.\n     */\n    function setTitle(string memory newTitle) public {\n        require(msg.sender == seller, \"Only seller can modify title\");\n        require(\n            currentStatus == State.WAITING_BUYER,\n            \"Title can only be modified before a purchase\"\n        );\n        require(bytes(newTitle).length > 0, \"A title is required\");\n        title = newTitle;\n        emit TitleChanged(newTitle);\n    }\n\n    /**\n     @notice Change the category of the offer to `newCategory`.\n             This is only available while the contract is awaiting a buyer.\n     @param newCategory New category to be set. Should be one of the categories\n                        defined by the application. Should not be empty.\n     @dev Offers with an empty or unrecognised category should be classified as \"Others\"\n          or \"Uncategorised\".\n     */\n    function setCategory(string memory newCategory) public {\n        require(msg.sender == seller, \"Only seller can change category\");\n        require(\n            currentStatus == State.WAITING_BUYER,\n            \"Category can only be changed before a purchase\"\n        );\n        category = newCategory;\n        emit CategoryChanged(newCategory);\n    }\n\n    /**\n     @notice Change the origin shipping country of the offer.\n     @param newShipsFrom ISO 3166-1 alpha-3 code of the shipping country.\n                         \"XXX\" is \"Not applicable\" (e.g. digital goods).\n                         Other XX codes may be used by the application.\n     */\n    function setShipsFrom(bytes3 newShipsFrom) public {\n        require(msg.sender == seller, \"Only seller can change shipping country\");\n        require(\n            currentStatus == State.WAITING_BUYER,\n            \"Shipping country can only be changed before a purchase\"\n        );\n        shipsFrom = newShipsFrom;\n        emit ShipsFromChanged(newShipsFrom);\n    }\n\n    /**\n     @notice Buy this offer. When calling this function, the buyer must provide\n             the currency to pay the deposit as well as the price of the offer.\n     @dev You can use the provided views to establish the correct amount to be sent.\n     @param newContactInfo The contact information that will be provided to the seller.\n                           It must be encrypted with the seller's public key.\n                           Beyond that, the format of the plaintext is left unspecified for now.\n     */\n    function buy(bytes memory newContactInfo) public payable {\n        require(currentStatus == State.WAITING_BUYER, \"Can't buy in current status\");\n        require(msg.sender != seller, \"Seller can't self-buy\");\n        require(msg.value == buyerDepositWithPayment(), \"Invalid deposit\");\n        buyer = msg.sender;\n        contactInfo = newContactInfo;\n        purchaseDate = uint64(now);\n        currentStatus = State.PENDING_CONFIRMATION;\n        emit Bought(buyer);\n    }\n\n    /**\n     @notice Confirm that the transaction has finished satisfactorily. This will return\n             their deposits to both parties and transfer the payment to the seller.\n             This can only be called by the buyer, and only when the offer is pending confirmation.\n     */\n    function confirm() public {\n        require(currentStatus == State.PENDING_CONFIRMATION, \"Can't confirm in current status\");\n        require(msg.sender == buyer, \"Only buyer can confirm\");\n        payTo(seller, sellerDepositWithPayment());\n        payTo(buyer, buyerDeposit());\n        confirmationDate = uint64(now);\n        currentStatus = State.COMPLETED;\n        emit Completed();\n    }\n\n    /**\n     @notice Reject the buyer. This will refund them their deposit and payment, and revert\n             the offer to the \"awaiting buyer\" state. This can only be called by the seller,\n             and only when the offer is pending confirmation. If the buyer needs to withdraw\n             their purchase, they may contact the seller and request their rejection, or the\n             cancellation of the offer.\n     */\n    function rejectBuyer() public {\n        require(currentStatus == State.PENDING_CONFIRMATION, \"Can't reject buyer in current status\");\n        require(msg.sender == seller, \"Only seller can reject buyer\");\n        payTo(buyer, buyerDepositWithPayment());\n        address oldBuyer = buyer;\n        delete buyer;\n        delete contactInfo;\n        delete purchaseDate;\n        currentStatus = State.WAITING_BUYER;\n        emit BuyerRejected(oldBuyer);\n    }\n\n    /**\n     @notice Cancel the offer. This refunds their deposits to all parties and, should a\n             buyer had been found, also refunds them the payment.\n             This can only be called by the seller, on the \"awaiting buyer\" and\n             \"pending confirmation\" states.\n     */\n    function cancel() public {\n        require(\n            currentStatus == State.WAITING_BUYER || currentStatus == State.PENDING_CONFIRMATION,\n            \"Can't cancel in current status\"\n        );\n        require(msg.sender == seller, \"Only seller can cancel\");\n        payTo(seller, sellerDeposit());\n        if (currentStatus == State.PENDING_CONFIRMATION) {\n            rejectBuyer();\n        }\n        currentStatus = State.CANCELLED;\n        emit Cancelled();\n    }\n\n    /**\n     @notice Calculate the buyer deposit. This does not depend on whether it has been\n             paid, it's just a calculation function for convenience.\n     @return The amount of the buyer deposit (`price * BUYER_DEPOSIT_MULTIPLIER`)\n     */\n    function buyerDeposit() public view returns (uint256) {\n        return price * BUYER_DEPOSIT_MULTIPLIER;\n    }\n\n    /**\n     @notice Calculate the seller deposit. This does not depend on whether it has been\n             paid, it's just a calculation function for convenience.\n     @return The amount of the seller deposit (`price * SELLER_DEPOSIT_MULTIPLIER`)\n     */\n    function sellerDeposit() public view returns (uint256) {\n        return price * SELLER_DEPOSIT_MULTIPLIER;\n    }\n\n    /**\n     @notice Calculate the (buyer deposit + payment). This is a convenience function\n             to know the exact amount to be sent to the functions that require it.\n     @return The amount of the buyer deposit plus the playment (`buyerDeposit() + price`)\n     */\n    function buyerDepositWithPayment() public view returns (uint256) {\n        return price * (BUYER_DEPOSIT_MULTIPLIER + 1);\n    }\n\n    /**\n     @notice Calculate the (buyer deposit + payment). This is a convenience function\n             to know the exact amount to be sent to the functions that require it.\n     @return The amount of the buyer deposit plus the playment (`sellerDeposit() + price`)\n     */\n    function sellerDepositWithPayment() public view returns (uint256) {\n        return price * (SELLER_DEPOSIT_MULTIPLIER + 1);\n    }\n\n    /**\n     @notice Add to the pending withdrawals of `to` an ether debt of `amount`,\n             to be collected with the function withdraw().\n     @dev This is part of the Withdrawal Pattern used to avoid reentrancy attacks.\n     */\n    function payTo(address to, uint256 amount) private {\n        pendingWithdrawals[to] += amount;\n    }\n}\n",
  "sourcePath": "/home/mark/Blockchain/real/wb-contracts/contracts/Offer.sol",
  "compiler": {
    "name": "solc",
    "version": "0.5.16+commit.9c3226ce.Emscripten.clang"
  },
  "schemaVersion": "3.0.23",
  "updatedAt": "2020-05-03T13:10:47.778Z",
  "devdoc": {
    "author": "The Wallablock team",
    "methods": {
      "buy(bytes)": {
        "details": "You can use the provided views to establish the correct amount to be sent.",
        "params": {
          "newContactInfo": "The contact information that will be provided to the seller. It must be encrypted with the seller's public key. Beyond that, the format of the plaintext is left unspecified for now."
        }
      },
      "buyerDeposit()": {
        "return": "The amount of the buyer deposit (`price * BUYER_DEPOSIT_MULTIPLIER`)"
      },
      "buyerDepositWithPayment()": {
        "return": "The amount of the buyer deposit plus the playment (`buyerDeposit() + price`)"
      },
      "constructor": {
        "details": "The ethers for the deposit must be sent with the call to the constructor. The value of the deposit is the proposed price times the seller multiplier.",
        "params": {
          "newCategory": "The category of the offer. See: setCategory()",
          "newPrice": "The price of the offer. Must be bigger than or equal to the minimum price `MIN_PRICE`. Too big of a price may cause an overflow, which will result in a failure.",
          "newShipsFrom": "The origin shipping country for the offer. See: setShipsFrom()",
          "newTitle": "The title of the offer. May not be empty."
        }
      },
      "getContactInfo()": {
        "details": "Don't rely on these checks to protect the contact information, they can be bypassed by anyone with access to the blockchain; that's why the information must be encrypted.While the buyer can't recover the original information, because that requires the seller's private key, they can compare the encrypted contact information.",
        "return": "Contact information, encrypted with the sellers public key."
      },
      "sellerDeposit()": {
        "return": "The amount of the seller deposit (`price * SELLER_DEPOSIT_MULTIPLIER`)"
      },
      "sellerDepositWithPayment()": {
        "return": "The amount of the buyer deposit plus the playment (`sellerDeposit() + price`)"
      },
      "setAttachedFiles(string)": {
        "details": "The function will not check the validity of the CID in any way; the caller is resposible for the appropriate checks.",
        "params": {
          "newCID": "Content Identifier of the directory containing the updated files."
        }
      },
      "setCategory(string)": {
        "details": "Offers with an empty or unrecognised category should be classified as \"Others\" or \"Uncategorised\".",
        "params": {
          "newCategory": "New category to be set. Should be one of the categories defined by the application. Should not be empty."
        }
      },
      "setPrice(uint256)": {
        "params": {
          "newPrice": "New price to set. Must fulfill the usual conditions of the price."
        }
      },
      "setShipsFrom(bytes3)": {
        "params": {
          "newShipsFrom": "ISO 3166-1 alpha-3 code of the shipping country. \"XXX\" is \"Not applicable\" (e.g. digital goods). Other XX codes may be used by the application."
        }
      },
      "setTitle(string)": {
        "params": {
          "newTitle": "New title to be set. May not be empty."
        }
      },
      "withdraw()": {
        "details": "Check first the pending withdrawals to avoid wasting gas. This is part of the Withdrawal Pattern used to avoid reentrancy attacks."
      }
    },
    "title": "An offer to exchange goods or services for Ethers."
  },
  "userdoc": {
    "methods": {
      "buy(bytes)": {
        "notice": "Buy this offer. When calling this function, the buyer must provide the currency to pay the deposit as well as the price of the offer."
      },
      "buyerDeposit()": {
        "notice": "Calculate the buyer deposit. This does not depend on whether it has been paid, it's just a calculation function for convenience."
      },
      "buyerDepositWithPayment()": {
        "notice": "Calculate the (buyer deposit + payment). This is a convenience function to know the exact amount to be sent to the functions that require it."
      },
      "cancel()": {
        "notice": "Cancel the offer. This refunds their deposits to all parties and, should a buyer had been found, also refunds them the payment. This can only be called by the seller, on the \"awaiting buyer\" and \"pending confirmation\" states."
      },
      "confirm()": {
        "notice": "Confirm that the transaction has finished satisfactorily. This will return their deposits to both parties and transfer the payment to the seller. This can only be called by the buyer, and only when the offer is pending confirmation."
      },
      "constructor": "Create the offer with price `newPrice` and title `newTitle`. The relevant deposit must be made at the same time or the creation will fail.",
      "getContactInfo()": {
        "notice": "Get the (encrypted) buyer's contact information. This function may only be used by the sender or the buyer, and only in those states where the contact information is available (pending confirmation and completed)."
      },
      "rejectBuyer()": {
        "notice": "Reject the buyer. This will refund them their deposit and payment, and revert the offer to the \"awaiting buyer\" state. This can only be called by the seller, and only when the offer is pending confirmation. If the buyer needs to withdraw their purchase, they may contact the seller and request their rejection, or the cancellation of the offer."
      },
      "sellerDeposit()": {
        "notice": "Calculate the seller deposit. This does not depend on whether it has been paid, it's just a calculation function for convenience."
      },
      "sellerDepositWithPayment()": {
        "notice": "Calculate the (buyer deposit + payment). This is a convenience function to know the exact amount to be sent to the functions that require it."
      },
      "setAttachedFiles(string)": {
        "notice": "Change the attached files of the contract to point to the `newCID` directory."
      },
      "setCategory(string)": {
        "notice": "Change the category of the offer to `newCategory`. This is only available while the contract is awaiting a buyer."
      },
      "setPrice(uint256)": {
        "notice": "Changes the price of the offer to `newPrice`. This is only possible while the contract is awaiting a buyer. If the new price is greater than the current price (`price`), the difference in the deposit must be paid when calling this function. If the new price is lower, the difference in the deposit will be made available for withdrawal."
      },
      "setShipsFrom(bytes3)": {
        "notice": "Change the origin shipping country of the offer."
      },
      "setTitle(string)": {
        "notice": "Change the title of the offer to `newTitle`. This is only available while the contract is awaiting a buyer."
      },
      "withdraw()": {
        "notice": "Call this to settle any outstanding debts has with the calling account."
      }
    }
  }
}